{
  "contractName": "Campaign",
  "abi": [
    {
      "inputs": [
        {
          "internalType": "uint256",
          "name": "minimum",
          "type": "uint256"
        },
        {
          "internalType": "address",
          "name": "creator",
          "type": "address"
        }
      ],
      "stateMutability": "nonpayable",
      "type": "constructor"
    },
    {
      "inputs": [
        {
          "internalType": "address",
          "name": "",
          "type": "address"
        }
      ],
      "name": "contributors",
      "outputs": [
        {
          "internalType": "bool",
          "name": "",
          "type": "bool"
        }
      ],
      "stateMutability": "view",
      "type": "function"
    },
    {
      "inputs": [],
      "name": "contributorsCount",
      "outputs": [
        {
          "internalType": "uint256",
          "name": "",
          "type": "uint256"
        }
      ],
      "stateMutability": "view",
      "type": "function"
    },
    {
      "inputs": [],
      "name": "manager",
      "outputs": [
        {
          "internalType": "address",
          "name": "",
          "type": "address"
        }
      ],
      "stateMutability": "view",
      "type": "function"
    },
    {
      "inputs": [],
      "name": "minimumContribution",
      "outputs": [
        {
          "internalType": "uint256",
          "name": "",
          "type": "uint256"
        }
      ],
      "stateMutability": "view",
      "type": "function"
    },
    {
      "inputs": [
        {
          "internalType": "uint256",
          "name": "",
          "type": "uint256"
        }
      ],
      "name": "requests",
      "outputs": [
        {
          "internalType": "string",
          "name": "description",
          "type": "string"
        },
        {
          "internalType": "uint256",
          "name": "value",
          "type": "uint256"
        },
        {
          "internalType": "address",
          "name": "recipient",
          "type": "address"
        },
        {
          "internalType": "bool",
          "name": "complete",
          "type": "bool"
        },
        {
          "internalType": "uint256",
          "name": "approvalCount",
          "type": "uint256"
        }
      ],
      "stateMutability": "view",
      "type": "function"
    },
    {
      "inputs": [],
      "name": "contribute",
      "outputs": [],
      "stateMutability": "payable",
      "type": "function"
    },
    {
      "inputs": [
        {
          "internalType": "string",
          "name": "description",
          "type": "string"
        },
        {
          "internalType": "uint256",
          "name": "value",
          "type": "uint256"
        },
        {
          "internalType": "address",
          "name": "recipient",
          "type": "address"
        }
      ],
      "name": "createRequest",
      "outputs": [],
      "stateMutability": "nonpayable",
      "type": "function"
    },
    {
      "inputs": [
        {
          "internalType": "uint256",
          "name": "index",
          "type": "uint256"
        }
      ],
      "name": "approveRequest",
      "outputs": [],
      "stateMutability": "nonpayable",
      "type": "function"
    },
    {
      "inputs": [
        {
          "internalType": "uint256",
          "name": "index",
          "type": "uint256"
        }
      ],
      "name": "finalizeRequest",
      "outputs": [],
      "stateMutability": "nonpayable",
      "type": "function"
    },
    {
      "inputs": [],
      "name": "getSummary",
      "outputs": [
        {
          "internalType": "uint256",
          "name": "",
          "type": "uint256"
        },
        {
          "internalType": "uint256",
          "name": "",
          "type": "uint256"
        },
        {
          "internalType": "uint256",
          "name": "",
          "type": "uint256"
        },
        {
          "internalType": "uint256",
          "name": "",
          "type": "uint256"
        },
        {
          "internalType": "address",
          "name": "",
          "type": "address"
        }
      ],
      "stateMutability": "view",
      "type": "function"
    },
    {
      "inputs": [],
      "name": "getRequestsCount",
      "outputs": [
        {
          "internalType": "uint256",
          "name": "",
          "type": "uint256"
        }
      ],
      "stateMutability": "view",
      "type": "function"
    }
  ],
  "bytecode": "0x60806040523480156200001157600080fd5b50604051620014273803806200142783398181016040528101906200003791906200012c565b80600160006101000a81548173ffffffffffffffffffffffffffffffffffffffff021916908373ffffffffffffffffffffffffffffffffffffffff16021790555081600281905550505062000173565b600080fd5b6000819050919050565b620000a1816200008c565b8114620000ad57600080fd5b50565b600081519050620000c18162000096565b92915050565b600073ffffffffffffffffffffffffffffffffffffffff82169050919050565b6000620000f482620000c7565b9050919050565b6200010681620000e7565b81146200011257600080fd5b50565b6000815190506200012681620000fb565b92915050565b6000806040838503121562000146576200014562000087565b5b60006200015685828601620000b0565b9250506020620001698582860162000115565b9150509250929050565b6112a480620001836000396000f3fe60806040526004361061009c5760003560e01c80637569b3d7116100645780637569b3d71461018c57806381d12c58146101b75780638a9cfd55146101f8578063937e09b114610221578063d7bb99ba1461024c578063d7d1bbdb146102565761009c565b806303441006146100a15780631f6d4942146100ca5780633410452a146101075780634051ddac14610132578063481c6a7514610161575b600080fd5b3480156100ad57600080fd5b506100c860048036038101906100c39190610a92565b61027f565b005b3480156100d657600080fd5b506100f160048036038101906100ec9190610b1d565b61046a565b6040516100fe9190610b65565b60405180910390f35b34801561011357600080fd5b5061011c61048a565b6040516101299190610b8f565b60405180910390f35b34801561013e57600080fd5b50610147610496565b604051610158959493929190610bb9565b60405180910390f35b34801561016d57600080fd5b506101766104df565b6040516101839190610c0c565b60405180910390f35b34801561019857600080fd5b506101a1610505565b6040516101ae9190610b8f565b60405180910390f35b3480156101c357600080fd5b506101de60048036038101906101d99190610a92565b61050b565b6040516101ef959493929190610cc0565b60405180910390f35b34801561020457600080fd5b5061021f600480360381019061021a9190610e4f565b610606565b005b34801561022d57600080fd5b5061023661074b565b6040516102439190610b8f565b60405180910390f35b610254610751565b005b34801561026257600080fd5b5061027d60048036038101906102789190610a92565b610859565b005b600160009054906101000a900473ffffffffffffffffffffffffffffffffffffffff1673ffffffffffffffffffffffffffffffffffffffff163373ffffffffffffffffffffffffffffffffffffffff161461030f576040517f08c379a000000000000000000000000000000000000000000000000000000000815260040161030690610f30565b60405180910390fd5b600080828154811061032457610323610f50565b5b9060005260206000209060050201905060026005546103439190610fdd565b816003015411610388576040517f08c379a000000000000000000000000000000000000000000000000000000000815260040161037f906110a6565b60405180910390fd5b8060020160149054906101000a900460ff16156103da576040517f08c379a00000000000000000000000000000000000000000000000000000000081526004016103d190611112565b60405180910390fd5b8060020160009054906101000a900473ffffffffffffffffffffffffffffffffffffffff1673ffffffffffffffffffffffffffffffffffffffff166108fc82600101549081150290604051600060405180830381858888f19350505050158015610448573d6000803e3d6000fd5b5060018160020160146101000a81548160ff0219169083151502179055505050565b60036020528060005260406000206000915054906101000a900460ff1681565b60008080549050905090565b600080600080600060025447600080549050600554600160009054906101000a900473ffffffffffffffffffffffffffffffffffffffff16945094509450945094509091929394565b600160009054906101000a900473ffffffffffffffffffffffffffffffffffffffff1681565b60055481565b6000818154811061051b57600080fd5b906000526020600020906005020160009150905080600001805461053e90611161565b80601f016020809104026020016040519081016040528092919081815260200182805461056a90611161565b80156105b75780601f1061058c576101008083540402835291602001916105b7565b820191906000526020600020905b81548152906001019060200180831161059a57829003601f168201915b5050505050908060010154908060020160009054906101000a900473ffffffffffffffffffffffffffffffffffffffff16908060020160149054906101000a900460ff16908060030154905085565b600160009054906101000a900473ffffffffffffffffffffffffffffffffffffffff1673ffffffffffffffffffffffffffffffffffffffff163373ffffffffffffffffffffffffffffffffffffffff1614610696576040517f08c379a000000000000000000000000000000000000000000000000000000000815260040161068d90610f30565b60405180910390fd5b6000806001816001815401808255809150500390600052602060002090600502019050838160000190805190602001906106d19291906109a5565b50828160010181905550818160020160006101000a81548173ffffffffffffffffffffffffffffffffffffffff021916908373ffffffffffffffffffffffffffffffffffffffff16021790555060008160020160146101000a81548160ff0219169083151502179055506000816003018190555050505050565b60025481565b6002543411610795576040517f08c379a000000000000000000000000000000000000000000000000000000000815260040161078c90611205565b60405180910390fd5b600360003373ffffffffffffffffffffffffffffffffffffffff1673ffffffffffffffffffffffffffffffffffffffff16815260200190815260200160002060009054906101000a900460ff16610857576001600360003373ffffffffffffffffffffffffffffffffffffffff1673ffffffffffffffffffffffffffffffffffffffff16815260200190815260200160002060006101000a81548160ff0219169083151502179055506005600081548092919061085190611225565b91905055505b565b600080828154811061086e5761086d610f50565b5b90600052602060002090600502019050600360003373ffffffffffffffffffffffffffffffffffffffff1673ffffffffffffffffffffffffffffffffffffffff16815260200190815260200160002060009054906101000a900460ff166108d457600080fd5b8060040160003373ffffffffffffffffffffffffffffffffffffffff1673ffffffffffffffffffffffffffffffffffffffff16815260200190815260200160002060009054906101000a900460ff161561092d57600080fd5b60018160040160003373ffffffffffffffffffffffffffffffffffffffff1673ffffffffffffffffffffffffffffffffffffffff16815260200190815260200160002060006101000a81548160ff02191690831515021790555080600301600081548092919061099c90611225565b91905055505050565b8280546109b190611161565b90600052602060002090601f0160209004810192826109d35760008555610a1a565b82601f106109ec57805160ff1916838001178555610a1a565b82800160010185558215610a1a579182015b82811115610a195782518255916020019190600101906109fe565b5b509050610a279190610a2b565b5090565b5b80821115610a44576000816000905550600101610a2c565b5090565b6000604051905090565b600080fd5b600080fd5b6000819050919050565b610a6f81610a5c565b8114610a7a57600080fd5b50565b600081359050610a8c81610a66565b92915050565b600060208284031215610aa857610aa7610a52565b5b6000610ab684828501610a7d565b91505092915050565b600073ffffffffffffffffffffffffffffffffffffffff82169050919050565b6000610aea82610abf565b9050919050565b610afa81610adf565b8114610b0557600080fd5b50565b600081359050610b1781610af1565b92915050565b600060208284031215610b3357610b32610a52565b5b6000610b4184828501610b08565b91505092915050565b60008115159050919050565b610b5f81610b4a565b82525050565b6000602082019050610b7a6000830184610b56565b92915050565b610b8981610a5c565b82525050565b6000602082019050610ba46000830184610b80565b92915050565b610bb381610adf565b82525050565b600060a082019050610bce6000830188610b80565b610bdb6020830187610b80565b610be86040830186610b80565b610bf56060830185610b80565b610c026080830184610baa565b9695505050505050565b6000602082019050610c216000830184610baa565b92915050565b600081519050919050565b600082825260208201905092915050565b60005b83811015610c61578082015181840152602081019050610c46565b83811115610c70576000848401525b50505050565b6000601f19601f8301169050919050565b6000610c9282610c27565b610c9c8185610c32565b9350610cac818560208601610c43565b610cb581610c76565b840191505092915050565b600060a0820190508181036000830152610cda8188610c87565b9050610ce96020830187610b80565b610cf66040830186610baa565b610d036060830185610b56565b610d106080830184610b80565b9695505050505050565b600080fd5b600080fd5b7f4e487b7100000000000000000000000000000000000000000000000000000000600052604160045260246000fd5b610d5c82610c76565b810181811067ffffffffffffffff82111715610d7b57610d7a610d24565b5b80604052505050565b6000610d8e610a48565b9050610d9a8282610d53565b919050565b600067ffffffffffffffff821115610dba57610db9610d24565b5b610dc382610c76565b9050602081019050919050565b82818337600083830152505050565b6000610df2610ded84610d9f565b610d84565b905082815260208101848484011115610e0e57610e0d610d1f565b5b610e19848285610dd0565b509392505050565b600082601f830112610e3657610e35610d1a565b5b8135610e46848260208601610ddf565b91505092915050565b600080600060608486031215610e6857610e67610a52565b5b600084013567ffffffffffffffff811115610e8657610e85610a57565b5b610e9286828701610e21565b9350506020610ea386828701610a7d565b9250506040610eb486828701610b08565b9150509250925092565b7f4f6e6c792043616d706169676e206f776e65722063616e20637265617465207260008201527f6571756573747300000000000000000000000000000000000000000000000000602082015250565b6000610f1a602783610c32565b9150610f2582610ebe565b604082019050919050565b60006020820190508181036000830152610f4981610f0d565b9050919050565b7f4e487b7100000000000000000000000000000000000000000000000000000000600052603260045260246000fd5b7f4e487b7100000000000000000000000000000000000000000000000000000000600052601260045260246000fd5b7f4e487b7100000000000000000000000000000000000000000000000000000000600052601160045260246000fd5b6000610fe882610a5c565b9150610ff383610a5c565b92508261100357611002610f7f565b5b828204905092915050565b7f72657175657374206d75737420686176652074686520617070726f76616c206f60008201527f66206d6f7265207468616e2074686520353025206f662074686520636f6e747260208201527f696275746f727300000000000000000000000000000000000000000000000000604082015250565b6000611090604783610c32565b915061109b8261100e565b606082019050919050565b600060208201905081810360008301526110bf81611083565b9050919050565b7f7265717565737420616c726561647920636f6d706c6574656400000000000000600082015250565b60006110fc601983610c32565b9150611107826110c6565b602082019050919050565b6000602082019050818103600083015261112b816110ef565b9050919050565b7f4e487b7100000000000000000000000000000000000000000000000000000000600052602260045260246000fd5b6000600282049050600182168061117957607f821691505b6020821081141561118d5761118c611132565b5b50919050565b7f636f6e747269627574696f6e20697320756e64657220746865206d696e696d7560008201527f6d20636f6e747269627574696f6e206c696d6974000000000000000000000000602082015250565b60006111ef603483610c32565b91506111fa82611193565b604082019050919050565b6000602082019050818103600083015261121e816111e2565b9050919050565b600061123082610a5c565b91507fffffffffffffffffffffffffffffffffffffffffffffffffffffffffffffffff82141561126357611262610fae565b5b60018201905091905056fea2646970667358221220cda532e9a3ce5d5d5ab4cdeec336c7e3c1f6ac922fcbd2398910af2a0f8d2d6f64736f6c63430008090033",
  "immutableReferences": {},
  "source": "// SPDX-License-Identifier: GPL-3.0\n\npragma solidity ^0.8.9;\n\ncontract CampaignFactory {\n    address[] public deployedCampaigns;\n\n    function createCampaign(uint256 minimum) public {\n        address newCampaign = address(new Campaign(minimum, msg.sender));\n        deployedCampaigns.push(newCampaign);\n    }\n\n    function getDeployedCampaigns() public view returns (address[] memory) {\n        return deployedCampaigns;\n    }\n}\n\ncontract Campaign {\n    struct Request {\n        string description;\n        uint256 value;\n        address recipient;\n        bool complete;\n        uint256 approvalCount;\n        mapping(address => bool) approvals;\n    }\n\n    // mapping(uint256 => Request) public requests;\n    Request[] public requests;\n    address public manager;\n    uint256 public minimumContribution;\n    mapping(address => bool) public contributors;\n    uint256 private numRequests;\n    uint256 public contributorsCount;\n\n    modifier restricted() {\n        require(\n            msg.sender == manager,\n            \"Only Campaign owner can create requests\"\n        );\n        _;\n    }\n\n    constructor(uint256 minimum, address creator) {\n        manager = creator;\n        minimumContribution = minimum;\n    }\n\n    function contribute() public payable {\n        require(\n            msg.value > minimumContribution,\n            \"contribution is under the minimum contribution limit\"\n        );\n        if (!contributors[msg.sender]) {\n            contributors[msg.sender] = true;\n            contributorsCount++;\n        }\n    }\n\n    function createRequest(\n        string memory description,\n        uint256 value,\n        address recipient\n    ) public restricted {\n        // Request storage r = requests[numRequests++];\n        // r.description = description;\n        // r.value = value;\n        // r.recipient = recipient;\n        // r.complete = false;\n        // r.approvalCount = 0;\n        // requestsCount++;\n\n        Request storage r = requests.push();\n        r.description = description;\n        r.value = value;\n        r.recipient = recipient;\n        r.complete = false;\n        r.approvalCount = 0;\n    }\n\n    function approveRequest(uint256 index) public {\n        Request storage request = requests[index];\n        require(contributors[msg.sender]);\n        require(!request.approvals[msg.sender]);\n\n        request.approvals[msg.sender] = true;\n        request.approvalCount++;\n    }\n\n    function finalizeRequest(uint256 index) public restricted {\n        Request storage request = requests[index];\n\n        require(\n            request.approvalCount > (contributorsCount / 2),\n            \"request must have the approval of more than the 50% of the contributors\"\n        );\n        require(!request.complete, \"request already completed\");\n\n        payable(request.recipient).transfer(request.value);\n        request.complete = true;\n    }\n\n    function getSummary()\n        public\n        view\n        returns (\n            uint256,\n            uint256,\n            uint256,\n            uint256,\n            address\n        )\n    {\n        return (\n            minimumContribution,\n            address(this).balance,\n            requests.length,\n            contributorsCount,\n            manager\n        );\n    }\n\n    function getRequestsCount() public view returns (uint256) {\n        return requests.length;\n    }\n}\n",
  "sourcePath": "/Users/marcandresfontanet/projects/dApps/kickstart/ethereum/contracts/Campaign.sol",
  "compiler": {
    "name": "solc",
    "version": "0.8.9+commit.e5eed63a.Emscripten.clang"
  },
  "schemaVersion": "3.4.3",
  "updatedAt": "2021-11-15T20:11:55.362Z",
  "devdoc": {
    "kind": "dev",
    "methods": {},
    "version": 1
  },
  "userdoc": {
    "kind": "user",
    "methods": {},
    "version": 1
  }
}